{
  "_format": "hh-sol-artifact-1",
  "contractName": "HedgingManager",
  "sourceName": "contracts/HedgingManager.sol",
  "abi": [
    {
      "inputs": [
        {
          "internalType": "address",
          "name": "_ftso",
          "type": "address"
        },
        {
          "internalType": "address",
          "name": "_dex",
          "type": "address"
        }
      ],
      "stateMutability": "nonpayable",
      "type": "constructor"
    },
    {
      "anonymous": false,
      "inputs": [
        {
          "indexed": true,
          "internalType": "address",
          "name": "user",
          "type": "address"
        },
        {
          "indexed": false,
          "internalType": "uint256",
          "name": "btcAmount",
          "type": "uint256"
        },
        {
          "indexed": false,
          "internalType": "uint256",
          "name": "xrpAmount",
          "type": "uint256"
        }
      ],
      "name": "HedgeExecuted",
      "type": "event"
    },
    {
      "inputs": [
        {
          "internalType": "address",
          "name": "",
          "type": "address"
        }
      ],
      "name": "btcPositions",
      "outputs": [
        {
          "internalType": "uint256",
          "name": "",
          "type": "uint256"
        }
      ],
      "stateMutability": "view",
      "type": "function"
    },
    {
      "inputs": [
        {
          "internalType": "uint256",
          "name": "amount",
          "type": "uint256"
        }
      ],
      "name": "depositBTC",
      "outputs": [],
      "stateMutability": "nonpayable",
      "type": "function"
    },
    {
      "inputs": [
        {
          "internalType": "uint256",
          "name": "amount",
          "type": "uint256"
        }
      ],
      "name": "depositXRP",
      "outputs": [],
      "stateMutability": "nonpayable",
      "type": "function"
    },
    {
      "inputs": [],
      "name": "dex",
      "outputs": [
        {
          "internalType": "contract IDex",
          "name": "",
          "type": "address"
        }
      ],
      "stateMutability": "view",
      "type": "function"
    },
    {
      "inputs": [
        {
          "internalType": "address",
          "name": "fromToken",
          "type": "address"
        },
        {
          "internalType": "address",
          "name": "toToken",
          "type": "address"
        },
        {
          "internalType": "uint256",
          "name": "percent",
          "type": "uint256"
        }
      ],
      "name": "executeHedge",
      "outputs": [],
      "stateMutability": "nonpayable",
      "type": "function"
    },
    {
      "inputs": [],
      "name": "ftso",
      "outputs": [
        {
          "internalType": "contract IFTSO",
          "name": "",
          "type": "address"
        }
      ],
      "stateMutability": "view",
      "type": "function"
    },
    {
      "inputs": [
        {
          "internalType": "address",
          "name": "user",
          "type": "address"
        }
      ],
      "name": "getPositions",
      "outputs": [
        {
          "internalType": "uint256",
          "name": "btc",
          "type": "uint256"
        },
        {
          "internalType": "uint256",
          "name": "xrp",
          "type": "uint256"
        }
      ],
      "stateMutability": "view",
      "type": "function"
    },
    {
      "inputs": [],
      "name": "owner",
      "outputs": [
        {
          "internalType": "address",
          "name": "",
          "type": "address"
        }
      ],
      "stateMutability": "view",
      "type": "function"
    },
    {
      "inputs": [
        {
          "internalType": "address",
          "name": "",
          "type": "address"
        }
      ],
      "name": "xrpPositions",
      "outputs": [
        {
          "internalType": "uint256",
          "name": "",
          "type": "uint256"
        }
      ],
      "stateMutability": "view",
      "type": "function"
    }
  ],
  "bytecode": "0x608060405234801561001057600080fd5b50604051610d04380380610d048339818101604052810190610032919061015e565b336000806101000a81548173ffffffffffffffffffffffffffffffffffffffff021916908373ffffffffffffffffffffffffffffffffffffffff16021790555081600160006101000a81548173ffffffffffffffffffffffffffffffffffffffff021916908373ffffffffffffffffffffffffffffffffffffffff16021790555080600260006101000a81548173ffffffffffffffffffffffffffffffffffffffff021916908373ffffffffffffffffffffffffffffffffffffffff160217905550505061019e565b600080fd5b600073ffffffffffffffffffffffffffffffffffffffff82169050919050565b600061012b82610100565b9050919050565b61013b81610120565b811461014657600080fd5b50565b60008151905061015881610132565b92915050565b60008060408385031215610175576101746100fb565b5b600061018385828601610149565b925050602061019485828601610149565b9150509250929050565b610b57806101ad6000396000f3fe608060405234801561001057600080fd5b50600436106100935760003560e01c80638da5cb5b116100665780638da5cb5b14610135578063a6b6d79814610153578063cbc07ecc1461016f578063d5819b741461018b578063d93180c5146101bb57610093565b80630da0c022146100985780633eeb530e146100b65780634fc34ef9146100e7578063692058c214610117575b600080fd5b6100a06101d7565b6040516100ad91906106f8565b60405180910390f35b6100d060048036038101906100cb9190610756565b6101fd565b6040516100de92919061079c565b60405180910390f35b61010160048036038101906100fc9190610756565b610289565b60405161010e91906107c5565b60405180910390f35b61011f6102a1565b60405161012c9190610801565b60405180910390f35b61013d6102c7565b60405161014a919061082b565b60405180910390f35b61016d60048036038101906101689190610872565b6102eb565b005b61018960048036038101906101849190610872565b610344565b005b6101a560048036038101906101a09190610756565b61039d565b6040516101b291906107c5565b60405180910390f35b6101d560048036038101906101d0919061089f565b6103b5565b005b600160009054906101000a900473ffffffffffffffffffffffffffffffffffffffff1681565b600080600360008473ffffffffffffffffffffffffffffffffffffffff1673ffffffffffffffffffffffffffffffffffffffff16815260200190815260200160002054600460008573ffffffffffffffffffffffffffffffffffffffff1673ffffffffffffffffffffffffffffffffffffffff1681526020019081526020016000205491509150915091565b60036020528060005260406000206000915090505481565b600260009054906101000a900473ffffffffffffffffffffffffffffffffffffffff1681565b60008054906101000a900473ffffffffffffffffffffffffffffffffffffffff1681565b80600360003373ffffffffffffffffffffffffffffffffffffffff1673ffffffffffffffffffffffffffffffffffffffff168152602001908152602001600020600082825461033a9190610921565b9250508190555050565b80600460003373ffffffffffffffffffffffffffffffffffffffff1673ffffffffffffffffffffffffffffffffffffffff16815260200190815260200160002060008282546103939190610921565b9250508190555050565b60046020528060005260406000206000915090505481565b6000600160009054906101000a900473ffffffffffffffffffffffffffffffffffffffff1673ffffffffffffffffffffffffffffffffffffffff166342a0f2436040518163ffffffff1660e01b8152600401610410906109b2565b602060405180830381865afa15801561042d573d6000803e3d6000fd5b505050506040513d601f19601f8201168201806040525081019061045191906109e7565b90506064605a826104629190610a14565b61046c9190610a85565b811015610673576000606483600360003373ffffffffffffffffffffffffffffffffffffffff1673ffffffffffffffffffffffffffffffffffffffff168152602001908152602001600020546104c29190610a14565b6104cc9190610a85565b90506000600260009054906101000a900473ffffffffffffffffffffffffffffffffffffffff1673ffffffffffffffffffffffffffffffffffffffff1663df791e508787856040518463ffffffff1660e01b815260040161052f93929190610ab6565b6020604051808303816000875af115801561054e573d6000803e3d6000fd5b505050506040513d601f19601f8201168201806040525081019061057291906109e7565b905081600360003373ffffffffffffffffffffffffffffffffffffffff1673ffffffffffffffffffffffffffffffffffffffff16815260200190815260200160002060008282546105c39190610aed565b9250508190555080600460003373ffffffffffffffffffffffffffffffffffffffff1673ffffffffffffffffffffffffffffffffffffffff16815260200190815260200160002060008282546106199190610921565b925050819055503373ffffffffffffffffffffffffffffffffffffffff167f3f4e6bf3ca48661af4b371f3dae154c85ea0d10ef872c50e8928c8b59fd4d7ea838360405161066892919061079c565b60405180910390a250505b50505050565b600073ffffffffffffffffffffffffffffffffffffffff82169050919050565b6000819050919050565b60006106be6106b96106b484610679565b610699565b610679565b9050919050565b60006106d0826106a3565b9050919050565b60006106e2826106c5565b9050919050565b6106f2816106d7565b82525050565b600060208201905061070d60008301846106e9565b92915050565b600080fd5b600061072382610679565b9050919050565b61073381610718565b811461073e57600080fd5b50565b6000813590506107508161072a565b92915050565b60006020828403121561076c5761076b610713565b5b600061077a84828501610741565b91505092915050565b6000819050919050565b61079681610783565b82525050565b60006040820190506107b1600083018561078d565b6107be602083018461078d565b9392505050565b60006020820190506107da600083018461078d565b92915050565b60006107eb826106c5565b9050919050565b6107fb816107e0565b82525050565b600060208201905061081660008301846107f2565b92915050565b61082581610718565b82525050565b6000602082019050610840600083018461081c565b92915050565b61084f81610783565b811461085a57600080fd5b50565b60008135905061086c81610846565b92915050565b60006020828403121561088857610887610713565b5b60006108968482850161085d565b91505092915050565b6000806000606084860312156108b8576108b7610713565b5b60006108c686828701610741565b93505060206108d786828701610741565b92505060406108e88682870161085d565b9150509250925092565b7f4e487b7100000000000000000000000000000000000000000000000000000000600052601160045260246000fd5b600061092c82610783565b915061093783610783565b925082820190508082111561094f5761094e6108f2565b5b92915050565b600082825260208201905092915050565b7f4254430000000000000000000000000000000000000000000000000000000000600082015250565b600061099c600383610955565b91506109a782610966565b602082019050919050565b600060208201905081810360008301526109cb8161098f565b9050919050565b6000815190506109e181610846565b92915050565b6000602082840312156109fd576109fc610713565b5b6000610a0b848285016109d2565b91505092915050565b6000610a1f82610783565b9150610a2a83610783565b9250828202610a3881610783565b91508282048414831517610a4f57610a4e6108f2565b5b5092915050565b7f4e487b7100000000000000000000000000000000000000000000000000000000600052601260045260246000fd5b6000610a9082610783565b9150610a9b83610783565b925082610aab57610aaa610a56565b5b828204905092915050565b6000606082019050610acb600083018661081c565b610ad8602083018561081c565b610ae5604083018461078d565b949350505050565b6000610af882610783565b9150610b0383610783565b9250828203905081811115610b1b57610b1a6108f2565b5b9291505056fea26469706673582212200a240e1cc652a32888b4ced6af31127cafc3d98265c5d83503f5d3ff4ddb0fc264736f6c63430008140033",
  "linkReferences": {},
  "deployedLinkReferences": {}
}