{
  "_format": "hh-sol-artifact-1",
  "contractName": "HedgingManager",
  "sourceName": "contracts/HedgingManager.sol",
  "abi": [
    {
      "inputs": [
        {
          "internalType": "address",
          "name": "_ftso",
          "type": "address"
        },
        {
          "internalType": "address",
          "name": "_dex",
          "type": "address"
        }
      ],
      "stateMutability": "nonpayable",
      "type": "constructor"
    },
    {
      "anonymous": false,
      "inputs": [
        {
          "indexed": true,
          "internalType": "address",
          "name": "user",
          "type": "address"
        },
        {
          "indexed": false,
          "internalType": "uint256",
          "name": "btcAmount",
          "type": "uint256"
        },
        {
          "indexed": false,
          "internalType": "uint256",
          "name": "xrpAmount",
          "type": "uint256"
        }
      ],
      "name": "HedgeExecuted",
      "type": "event"
    },
    {
      "inputs": [
        {
          "internalType": "address",
          "name": "",
          "type": "address"
        }
      ],
      "name": "btcPositions",
      "outputs": [
        {
          "internalType": "uint256",
          "name": "",
          "type": "uint256"
        }
      ],
      "stateMutability": "view",
      "type": "function"
    },
    {
      "inputs": [
        {
          "internalType": "uint256",
          "name": "amount",
          "type": "uint256"
        }
      ],
      "name": "depositBTC",
      "outputs": [],
      "stateMutability": "nonpayable",
      "type": "function"
    },
    {
      "inputs": [
        {
          "internalType": "uint256",
          "name": "amount",
          "type": "uint256"
        }
      ],
      "name": "depositXRP",
      "outputs": [],
      "stateMutability": "nonpayable",
      "type": "function"
    },
    {
      "inputs": [],
      "name": "dex",
      "outputs": [
        {
          "internalType": "contract IDex",
          "name": "",
          "type": "address"
        }
      ],
      "stateMutability": "view",
      "type": "function"
    },
    {
      "inputs": [
        {
          "internalType": "address",
          "name": "fromToken",
          "type": "address"
        },
        {
          "internalType": "address",
          "name": "toToken",
          "type": "address"
        },
        {
          "internalType": "uint256",
          "name": "percent",
          "type": "uint256"
        }
      ],
      "name": "executeHedge",
      "outputs": [],
      "stateMutability": "nonpayable",
      "type": "function"
    },
    {
      "inputs": [],
      "name": "ftso",
      "outputs": [
        {
          "internalType": "contract IFTSO",
          "name": "",
          "type": "address"
        }
      ],
      "stateMutability": "view",
      "type": "function"
    },
    {
      "inputs": [
        {
          "internalType": "address",
          "name": "user",
          "type": "address"
        }
      ],
      "name": "getPositions",
      "outputs": [
        {
          "internalType": "uint256",
          "name": "btc",
          "type": "uint256"
        },
        {
          "internalType": "uint256",
          "name": "xrp",
          "type": "uint256"
        }
      ],
      "stateMutability": "view",
      "type": "function"
    },
    {
      "inputs": [],
      "name": "owner",
      "outputs": [
        {
          "internalType": "address",
          "name": "",
          "type": "address"
        }
      ],
      "stateMutability": "view",
      "type": "function"
    },
    {
      "inputs": [
        {
          "internalType": "address",
          "name": "",
          "type": "address"
        }
      ],
      "name": "xrpPositions",
      "outputs": [
        {
          "internalType": "uint256",
          "name": "",
          "type": "uint256"
        }
      ],
      "stateMutability": "view",
      "type": "function"
    }
  ],
  "bytecode": "0x608060405234801561001057600080fd5b50604051610e0f380380610e0f8339818101604052810190610032919061015e565b336000806101000a81548173ffffffffffffffffffffffffffffffffffffffff021916908373ffffffffffffffffffffffffffffffffffffffff16021790555081600160006101000a81548173ffffffffffffffffffffffffffffffffffffffff021916908373ffffffffffffffffffffffffffffffffffffffff16021790555080600260006101000a81548173ffffffffffffffffffffffffffffffffffffffff021916908373ffffffffffffffffffffffffffffffffffffffff160217905550505061019e565b600080fd5b600073ffffffffffffffffffffffffffffffffffffffff82169050919050565b600061012b82610100565b9050919050565b61013b81610120565b811461014657600080fd5b50565b60008151905061015881610132565b92915050565b60008060408385031215610175576101746100fb565b5b600061018385828601610149565b925050602061019485828601610149565b9150509250929050565b610c62806101ad6000396000f3fe608060405234801561001057600080fd5b50600436106100935760003560e01c80638da5cb5b116100665780638da5cb5b14610135578063a6b6d79814610153578063cbc07ecc1461016f578063d5819b741461018b578063d93180c5146101bb57610093565b80630da0c022146100985780633eeb530e146100b65780634fc34ef9146100e7578063692058c214610117575b600080fd5b6100a06101d7565b6040516100ad9190610797565b60405180910390f35b6100d060048036038101906100cb91906107f5565b6101fd565b6040516100de92919061083b565b60405180910390f35b61010160048036038101906100fc91906107f5565b610289565b60405161010e9190610864565b60405180910390f35b61011f6102a1565b60405161012c91906108a0565b60405180910390f35b61013d6102c7565b60405161014a91906108ca565b60405180910390f35b61016d60048036038101906101689190610911565b6102eb565b005b61018960048036038101906101849190610911565b610344565b005b6101a560048036038101906101a091906107f5565b61039d565b6040516101b29190610864565b60405180910390f35b6101d560048036038101906101d0919061093e565b6103b5565b005b600160009054906101000a900473ffffffffffffffffffffffffffffffffffffffff1681565b600080600360008473ffffffffffffffffffffffffffffffffffffffff1673ffffffffffffffffffffffffffffffffffffffff16815260200190815260200160002054600460008573ffffffffffffffffffffffffffffffffffffffff1673ffffffffffffffffffffffffffffffffffffffff1681526020019081526020016000205491509150915091565b60036020528060005260406000206000915090505481565b600260009054906101000a900473ffffffffffffffffffffffffffffffffffffffff1681565b60008054906101000a900473ffffffffffffffffffffffffffffffffffffffff1681565b80600360003373ffffffffffffffffffffffffffffffffffffffff1673ffffffffffffffffffffffffffffffffffffffff168152602001908152602001600020600082825461033a91906109c0565b9250508190555050565b80600460003373ffffffffffffffffffffffffffffffffffffffff1673ffffffffffffffffffffffffffffffffffffffff168152602001908152602001600020600082825461039391906109c0565b9250508190555050565b60046020528060005260406000206000915090505481565b6000600160009054906101000a900473ffffffffffffffffffffffffffffffffffffffff1673ffffffffffffffffffffffffffffffffffffffff166342a0f2436040518163ffffffff1660e01b815260040161041090610a51565b602060405180830381865afa15801561042d573d6000803e3d6000fd5b505050506040513d601f19601f820116820180604052508101906104519190610a86565b90506000600160009054906101000a900473ffffffffffffffffffffffffffffffffffffffff1673ffffffffffffffffffffffffffffffffffffffff166342a0f2436040518163ffffffff1660e01b81526004016104ae90610aff565b602060405180830381865afa1580156104cb573d6000803e3d6000fd5b505050506040513d601f19601f820116820180604052508101906104ef9190610a86565b90506064605a836105009190610b1f565b61050a9190610b90565b821015610711576000606484600360003373ffffffffffffffffffffffffffffffffffffffff1673ffffffffffffffffffffffffffffffffffffffff168152602001908152602001600020546105609190610b1f565b61056a9190610b90565b90506000600260009054906101000a900473ffffffffffffffffffffffffffffffffffffffff1673ffffffffffffffffffffffffffffffffffffffff1663df791e508888856040518463ffffffff1660e01b81526004016105cd93929190610bc1565b6020604051808303816000875af11580156105ec573d6000803e3d6000fd5b505050506040513d601f19601f820116820180604052508101906106109190610a86565b905081600360003373ffffffffffffffffffffffffffffffffffffffff1673ffffffffffffffffffffffffffffffffffffffff16815260200190815260200160002060008282546106619190610bf8565b9250508190555080600460003373ffffffffffffffffffffffffffffffffffffffff1673ffffffffffffffffffffffffffffffffffffffff16815260200190815260200160002060008282546106b791906109c0565b925050819055503373ffffffffffffffffffffffffffffffffffffffff167f3f4e6bf3ca48661af4b371f3dae154c85ea0d10ef872c50e8928c8b59fd4d7ea838360405161070692919061083b565b60405180910390a250505b5050505050565b600073ffffffffffffffffffffffffffffffffffffffff82169050919050565b6000819050919050565b600061075d61075861075384610718565b610738565b610718565b9050919050565b600061076f82610742565b9050919050565b600061078182610764565b9050919050565b61079181610776565b82525050565b60006020820190506107ac6000830184610788565b92915050565b600080fd5b60006107c282610718565b9050919050565b6107d2816107b7565b81146107dd57600080fd5b50565b6000813590506107ef816107c9565b92915050565b60006020828403121561080b5761080a6107b2565b5b6000610819848285016107e0565b91505092915050565b6000819050919050565b61083581610822565b82525050565b6000604082019050610850600083018561082c565b61085d602083018461082c565b9392505050565b6000602082019050610879600083018461082c565b92915050565b600061088a82610764565b9050919050565b61089a8161087f565b82525050565b60006020820190506108b56000830184610891565b92915050565b6108c4816107b7565b82525050565b60006020820190506108df60008301846108bb565b92915050565b6108ee81610822565b81146108f957600080fd5b50565b60008135905061090b816108e5565b92915050565b600060208284031215610927576109266107b2565b5b6000610935848285016108fc565b91505092915050565b600080600060608486031215610957576109566107b2565b5b6000610965868287016107e0565b9350506020610976868287016107e0565b9250506040610987868287016108fc565b9150509250925092565b7f4e487b7100000000000000000000000000000000000000000000000000000000600052601160045260246000fd5b60006109cb82610822565b91506109d683610822565b92508282019050808211156109ee576109ed610991565b5b92915050565b600082825260208201905092915050565b7f4254430000000000000000000000000000000000000000000000000000000000600082015250565b6000610a3b6003836109f4565b9150610a4682610a05565b602082019050919050565b60006020820190508181036000830152610a6a81610a2e565b9050919050565b600081519050610a80816108e5565b92915050565b600060208284031215610a9c57610a9b6107b2565b5b6000610aaa84828501610a71565b91505092915050565b7f5852500000000000000000000000000000000000000000000000000000000000600082015250565b6000610ae96003836109f4565b9150610af482610ab3565b602082019050919050565b60006020820190508181036000830152610b1881610adc565b9050919050565b6000610b2a82610822565b9150610b3583610822565b9250828202610b4381610822565b91508282048414831517610b5a57610b59610991565b5b5092915050565b7f4e487b7100000000000000000000000000000000000000000000000000000000600052601260045260246000fd5b6000610b9b82610822565b9150610ba683610822565b925082610bb657610bb5610b61565b5b828204905092915050565b6000606082019050610bd660008301866108bb565b610be360208301856108bb565b610bf0604083018461082c565b949350505050565b6000610c0382610822565b9150610c0e83610822565b9250828203905081811115610c2657610c25610991565b5b9291505056fea26469706673582212202f588e91f1863cae9e160c02c07253629e784a0ffc5809536557e5da96b8f3dc64736f6c63430008140033",
  "linkReferences": {},
  "deployedLinkReferences": {}
}