{
  "_format": "hh-sol-artifact-1",
  "contractName": "FTSOConsumer",
  "sourceName": "contracts/FTSOConsumer.sol",
  "abi": [
    {
      "inputs": [],
      "stateMutability": "nonpayable",
      "type": "constructor"
    },
    {
      "anonymous": false,
      "inputs": [
        {
          "indexed": false,
          "internalType": "string",
          "name": "symbol",
          "type": "string"
        },
        {
          "indexed": false,
          "internalType": "address",
          "name": "provider",
          "type": "address"
        }
      ],
      "name": "PriceProviderRegistered",
      "type": "event"
    },
    {
      "inputs": [
        {
          "internalType": "string",
          "name": "symbol",
          "type": "string"
        }
      ],
      "name": "getPrice",
      "outputs": [
        {
          "internalType": "uint256",
          "name": "price",
          "type": "uint256"
        },
        {
          "internalType": "uint256",
          "name": "decimals",
          "type": "uint256"
        }
      ],
      "stateMutability": "view",
      "type": "function"
    },
    {
      "inputs": [],
      "name": "owner",
      "outputs": [
        {
          "internalType": "address",
          "name": "",
          "type": "address"
        }
      ],
      "stateMutability": "view",
      "type": "function"
    },
    {
      "inputs": [
        {
          "internalType": "string",
          "name": "",
          "type": "string"
        }
      ],
      "name": "priceProviders",
      "outputs": [
        {
          "internalType": "address",
          "name": "",
          "type": "address"
        }
      ],
      "stateMutability": "view",
      "type": "function"
    },
    {
      "inputs": [
        {
          "internalType": "string",
          "name": "symbol",
          "type": "string"
        },
        {
          "internalType": "address",
          "name": "provider",
          "type": "address"
        }
      ],
      "name": "registerPriceProvider",
      "outputs": [],
      "stateMutability": "nonpayable",
      "type": "function"
    }
  ],
  "bytecode": "0x608060405234801561001057600080fd5b50336000806101000a81548173ffffffffffffffffffffffffffffffffffffffff021916908373ffffffffffffffffffffffffffffffffffffffff160217905550610968806100606000396000f3fe608060405234801561001057600080fd5b506004361061004c5760003560e01c80633e671a8814610051578063524f38891461006d5780638da5cb5b1461009e578063f28b68ae146100bc575b600080fd5b61006b60048036038101906100669190610492565b6100ec565b005b610087600480360381019061008291906104f2565b610219565b604051610095929190610558565b60405180910390f35b6100a661034e565b6040516100b39190610590565b60405180910390f35b6100d660048036038101906100d191906106ec565b610372565b6040516100e39190610590565b60405180910390f35b60008054906101000a900473ffffffffffffffffffffffffffffffffffffffff1673ffffffffffffffffffffffffffffffffffffffff163373ffffffffffffffffffffffffffffffffffffffff161461017a576040517f08c379a000000000000000000000000000000000000000000000000000000000815260040161017190610792565b60405180910390fd5b806001848460405161018d9291906107e2565b908152602001604051809103902060006101000a81548173ffffffffffffffffffffffffffffffffffffffff021916908373ffffffffffffffffffffffffffffffffffffffff1602179055507f5a49e57dca515ef5d513338afde5b44bd9176921328c31a6fd73cfd82ab279b183838360405161020c93929190610828565b60405180910390a1505050565b6000806000600185856040516102309291906107e2565b908152602001604051809103902060009054906101000a900473ffffffffffffffffffffffffffffffffffffffff169050600073ffffffffffffffffffffffffffffffffffffffff168173ffffffffffffffffffffffffffffffffffffffff16036102d0576040517f08c379a00000000000000000000000000000000000000000000000000000000081526004016102c7906108a6565b60405180910390fd5b8073ffffffffffffffffffffffffffffffffffffffff1663eb91d37e6040518163ffffffff1660e01b81526004016040805180830381865afa15801561031a573d6000803e3d6000fd5b505050506040513d601f19601f8201168201806040525081019061033e91906108f2565b8093508194505050509250929050565b60008054906101000a900473ffffffffffffffffffffffffffffffffffffffff1681565b6001818051602081018201805184825260208301602085012081835280955050505050506000915054906101000a900473ffffffffffffffffffffffffffffffffffffffff1681565b6000604051905090565b600080fd5b600080fd5b600080fd5b600080fd5b600080fd5b60008083601f8401126103f4576103f36103cf565b5b8235905067ffffffffffffffff811115610411576104106103d4565b5b60208301915083600182028301111561042d5761042c6103d9565b5b9250929050565b600073ffffffffffffffffffffffffffffffffffffffff82169050919050565b600061045f82610434565b9050919050565b61046f81610454565b811461047a57600080fd5b50565b60008135905061048c81610466565b92915050565b6000806000604084860312156104ab576104aa6103c5565b5b600084013567ffffffffffffffff8111156104c9576104c86103ca565b5b6104d5868287016103de565b935093505060206104e88682870161047d565b9150509250925092565b60008060208385031215610509576105086103c5565b5b600083013567ffffffffffffffff811115610527576105266103ca565b5b610533858286016103de565b92509250509250929050565b6000819050919050565b6105528161053f565b82525050565b600060408201905061056d6000830185610549565b61057a6020830184610549565b9392505050565b61058a81610454565b82525050565b60006020820190506105a56000830184610581565b92915050565b600080fd5b6000601f19601f8301169050919050565b7f4e487b7100000000000000000000000000000000000000000000000000000000600052604160045260246000fd5b6105f9826105b0565b810181811067ffffffffffffffff82111715610618576106176105c1565b5b80604052505050565b600061062b6103bb565b905061063782826105f0565b919050565b600067ffffffffffffffff821115610657576106566105c1565b5b610660826105b0565b9050602081019050919050565b82818337600083830152505050565b600061068f61068a8461063c565b610621565b9050828152602081018484840111156106ab576106aa6105ab565b5b6106b684828561066d565b509392505050565b600082601f8301126106d3576106d26103cf565b5b81356106e384826020860161067c565b91505092915050565b600060208284031215610702576107016103c5565b5b600082013567ffffffffffffffff8111156107205761071f6103ca565b5b61072c848285016106be565b91505092915050565b600082825260208201905092915050565b7f4e6f7420617574686f72697a6564000000000000000000000000000000000000600082015250565b600061077c600e83610735565b915061078782610746565b602082019050919050565b600060208201905081810360008301526107ab8161076f565b9050919050565b600081905092915050565b60006107c983856107b2565b93506107d683858461066d565b82840190509392505050565b60006107ef8284866107bd565b91508190509392505050565b60006108078385610735565b935061081483858461066d565b61081d836105b0565b840190509392505050565b600060408201905081810360008301526108438185876107fb565b90506108526020830184610581565b949350505050565b7f50726f7669646572206e6f742072656769737465726564000000000000000000600082015250565b6000610890601783610735565b915061089b8261085a565b602082019050919050565b600060208201905081810360008301526108bf81610883565b9050919050565b6108cf8161053f565b81146108da57600080fd5b50565b6000815190506108ec816108c6565b92915050565b60008060408385031215610909576109086103c5565b5b6000610917858286016108dd565b9250506020610928858286016108dd565b915050925092905056fea2646970667358221220d398ecac07772189d070c5407f6ce037d989e33395f45dfcc4678f29e5a60f4564736f6c63430008140033",
  "linkReferences": {},
  "deployedLinkReferences": {}
}