{
  "_format": "hh-sol-artifact-1",
  "contractName": "SmartAccount",
  "sourceName": "contracts/SmartAccount.sol",
  "abi": [
    {
      "inputs": [
        {
          "internalType": "address",
          "name": "_hedgingManager",
          "type": "address"
        }
      ],
      "stateMutability": "nonpayable",
      "type": "constructor"
    },
    {
      "anonymous": false,
      "inputs": [
        {
          "indexed": true,
          "internalType": "address",
          "name": "user",
          "type": "address"
        },
        {
          "indexed": true,
          "internalType": "address",
          "name": "token",
          "type": "address"
        },
        {
          "indexed": false,
          "internalType": "uint256",
          "name": "amount",
          "type": "uint256"
        }
      ],
      "name": "CollateralDeposited",
      "type": "event"
    },
    {
      "anonymous": false,
      "inputs": [
        {
          "indexed": true,
          "internalType": "address",
          "name": "user",
          "type": "address"
        },
        {
          "indexed": true,
          "internalType": "address",
          "name": "token",
          "type": "address"
        },
        {
          "indexed": false,
          "internalType": "uint256",
          "name": "amount",
          "type": "uint256"
        }
      ],
      "name": "CollateralLocked",
      "type": "event"
    },
    {
      "anonymous": false,
      "inputs": [
        {
          "indexed": true,
          "internalType": "address",
          "name": "user",
          "type": "address"
        },
        {
          "indexed": true,
          "internalType": "address",
          "name": "token",
          "type": "address"
        },
        {
          "indexed": false,
          "internalType": "uint256",
          "name": "amount",
          "type": "uint256"
        }
      ],
      "name": "CollateralUnlocked",
      "type": "event"
    },
    {
      "anonymous": false,
      "inputs": [
        {
          "indexed": true,
          "internalType": "address",
          "name": "user",
          "type": "address"
        },
        {
          "indexed": true,
          "internalType": "address",
          "name": "token",
          "type": "address"
        },
        {
          "indexed": false,
          "internalType": "uint256",
          "name": "amount",
          "type": "uint256"
        }
      ],
      "name": "CollateralWithdrawn",
      "type": "event"
    },
    {
      "anonymous": false,
      "inputs": [
        {
          "indexed": true,
          "internalType": "address",
          "name": "user",
          "type": "address"
        },
        {
          "indexed": true,
          "internalType": "address",
          "name": "fromToken",
          "type": "address"
        },
        {
          "indexed": true,
          "internalType": "address",
          "name": "toToken",
          "type": "address"
        },
        {
          "indexed": false,
          "internalType": "uint256",
          "name": "fromAmount",
          "type": "uint256"
        },
        {
          "indexed": false,
          "internalType": "uint256",
          "name": "toAmount",
          "type": "uint256"
        }
      ],
      "name": "HedgeSettlement",
      "type": "event"
    },
    {
      "anonymous": false,
      "inputs": [
        {
          "indexed": true,
          "internalType": "address",
          "name": "user",
          "type": "address"
        },
        {
          "indexed": true,
          "internalType": "address",
          "name": "fromToken",
          "type": "address"
        },
        {
          "indexed": true,
          "internalType": "address",
          "name": "toToken",
          "type": "address"
        },
        {
          "indexed": false,
          "internalType": "uint256",
          "name": "fromAmount",
          "type": "uint256"
        },
        {
          "indexed": false,
          "internalType": "uint256",
          "name": "toAmount",
          "type": "uint256"
        },
        {
          "indexed": false,
          "internalType": "uint256",
          "name": "settlementId",
          "type": "uint256"
        }
      ],
      "name": "SettlementExecuted",
      "type": "event"
    },
    {
      "inputs": [
        {
          "internalType": "address",
          "name": "",
          "type": "address"
        },
        {
          "internalType": "address",
          "name": "",
          "type": "address"
        }
      ],
      "name": "collateral",
      "outputs": [
        {
          "internalType": "uint256",
          "name": "",
          "type": "uint256"
        }
      ],
      "stateMutability": "view",
      "type": "function"
    },
    {
      "inputs": [
        {
          "internalType": "address",
          "name": "token",
          "type": "address"
        },
        {
          "internalType": "uint256",
          "name": "amount",
          "type": "uint256"
        }
      ],
      "name": "depositCollateral",
      "outputs": [],
      "stateMutability": "nonpayable",
      "type": "function"
    },
    {
      "inputs": [
        {
          "internalType": "address",
          "name": "token",
          "type": "address"
        },
        {
          "internalType": "address",
          "name": "to",
          "type": "address"
        },
        {
          "internalType": "uint256",
          "name": "amount",
          "type": "uint256"
        }
      ],
      "name": "emergencyRecover",
      "outputs": [],
      "stateMutability": "nonpayable",
      "type": "function"
    },
    {
      "inputs": [
        {
          "internalType": "address",
          "name": "fromToken",
          "type": "address"
        },
        {
          "internalType": "address",
          "name": "toToken",
          "type": "address"
        },
        {
          "internalType": "uint256",
          "name": "percent",
          "type": "uint256"
        }
      ],
      "name": "executeHedgeSettlement",
      "outputs": [],
      "stateMutability": "nonpayable",
      "type": "function"
    },
    {
      "inputs": [
        {
          "internalType": "address",
          "name": "fromToken",
          "type": "address"
        },
        {
          "internalType": "address",
          "name": "toToken",
          "type": "address"
        },
        {
          "internalType": "uint256",
          "name": "fromAmount",
          "type": "uint256"
        },
        {
          "internalType": "uint256",
          "name": "minToAmount",
          "type": "uint256"
        },
        {
          "internalType": "address",
          "name": "dexAddress",
          "type": "address"
        }
      ],
      "name": "executeSettlement",
      "outputs": [
        {
          "internalType": "uint256",
          "name": "toAmount",
          "type": "uint256"
        }
      ],
      "stateMutability": "nonpayable",
      "type": "function"
    },
    {
      "inputs": [
        {
          "internalType": "address",
          "name": "user",
          "type": "address"
        },
        {
          "internalType": "address",
          "name": "token",
          "type": "address"
        }
      ],
      "name": "getAvailableCollateral",
      "outputs": [
        {
          "internalType": "uint256",
          "name": "",
          "type": "uint256"
        }
      ],
      "stateMutability": "view",
      "type": "function"
    },
    {
      "inputs": [
        {
          "internalType": "address",
          "name": "user",
          "type": "address"
        },
        {
          "internalType": "address",
          "name": "token",
          "type": "address"
        }
      ],
      "name": "getLockedCollateral",
      "outputs": [
        {
          "internalType": "uint256",
          "name": "",
          "type": "uint256"
        }
      ],
      "stateMutability": "view",
      "type": "function"
    },
    {
      "inputs": [
        {
          "internalType": "address",
          "name": "user",
          "type": "address"
        },
        {
          "internalType": "uint256",
          "name": "index",
          "type": "uint256"
        }
      ],
      "name": "getSettlement",
      "outputs": [
        {
          "components": [
            {
              "internalType": "address",
              "name": "fromToken",
              "type": "address"
            },
            {
              "internalType": "address",
              "name": "toToken",
              "type": "address"
            },
            {
              "internalType": "uint256",
              "name": "fromAmount",
              "type": "uint256"
            },
            {
              "internalType": "uint256",
              "name": "toAmount",
              "type": "uint256"
            },
            {
              "internalType": "uint256",
              "name": "timestamp",
              "type": "uint256"
            },
            {
              "internalType": "bool",
              "name": "executed",
              "type": "bool"
            }
          ],
          "internalType": "struct SmartAccount.Settlement",
          "name": "",
          "type": "tuple"
        }
      ],
      "stateMutability": "view",
      "type": "function"
    },
    {
      "inputs": [
        {
          "internalType": "address",
          "name": "user",
          "type": "address"
        }
      ],
      "name": "getSettlementCount",
      "outputs": [
        {
          "internalType": "uint256",
          "name": "",
          "type": "uint256"
        }
      ],
      "stateMutability": "view",
      "type": "function"
    },
    {
      "inputs": [
        {
          "internalType": "address",
          "name": "user",
          "type": "address"
        },
        {
          "internalType": "address",
          "name": "token",
          "type": "address"
        }
      ],
      "name": "getTotalCollateral",
      "outputs": [
        {
          "internalType": "uint256",
          "name": "",
          "type": "uint256"
        }
      ],
      "stateMutability": "view",
      "type": "function"
    },
    {
      "inputs": [],
      "name": "hedgingManager",
      "outputs": [
        {
          "internalType": "contract IHedgingManager",
          "name": "",
          "type": "address"
        }
      ],
      "stateMutability": "view",
      "type": "function"
    },
    {
      "inputs": [
        {
          "internalType": "address",
          "name": "token",
          "type": "address"
        },
        {
          "internalType": "uint256",
          "name": "amount",
          "type": "uint256"
        }
      ],
      "name": "lockCollateral",
      "outputs": [],
      "stateMutability": "nonpayable",
      "type": "function"
    },
    {
      "inputs": [
        {
          "internalType": "address",
          "name": "",
          "type": "address"
        },
        {
          "internalType": "address",
          "name": "",
          "type": "address"
        }
      ],
      "name": "lockedCollateral",
      "outputs": [
        {
          "internalType": "uint256",
          "name": "",
          "type": "uint256"
        }
      ],
      "stateMutability": "view",
      "type": "function"
    },
    {
      "inputs": [],
      "name": "owner",
      "outputs": [
        {
          "internalType": "address",
          "name": "",
          "type": "address"
        }
      ],
      "stateMutability": "view",
      "type": "function"
    },
    {
      "inputs": [
        {
          "internalType": "address",
          "name": "_hedgingManager",
          "type": "address"
        }
      ],
      "name": "setHedgingManager",
      "outputs": [],
      "stateMutability": "nonpayable",
      "type": "function"
    },
    {
      "inputs": [
        {
          "internalType": "address",
          "name": "",
          "type": "address"
        }
      ],
      "name": "settlementCount",
      "outputs": [
        {
          "internalType": "uint256",
          "name": "",
          "type": "uint256"
        }
      ],
      "stateMutability": "view",
      "type": "function"
    },
    {
      "inputs": [
        {
          "internalType": "address",
          "name": "",
          "type": "address"
        },
        {
          "internalType": "uint256",
          "name": "",
          "type": "uint256"
        }
      ],
      "name": "settlements",
      "outputs": [
        {
          "internalType": "address",
          "name": "fromToken",
          "type": "address"
        },
        {
          "internalType": "address",
          "name": "toToken",
          "type": "address"
        },
        {
          "internalType": "uint256",
          "name": "fromAmount",
          "type": "uint256"
        },
        {
          "internalType": "uint256",
          "name": "toAmount",
          "type": "uint256"
        },
        {
          "internalType": "uint256",
          "name": "timestamp",
          "type": "uint256"
        },
        {
          "internalType": "bool",
          "name": "executed",
          "type": "bool"
        }
      ],
      "stateMutability": "view",
      "type": "function"
    },
    {
      "inputs": [
        {
          "internalType": "address",
          "name": "token",
          "type": "address"
        },
        {
          "internalType": "uint256",
          "name": "amount",
          "type": "uint256"
        }
      ],
      "name": "unlockCollateral",
      "outputs": [],
      "stateMutability": "nonpayable",
      "type": "function"
    },
    {
      "inputs": [
        {
          "internalType": "address",
          "name": "token",
          "type": "address"
        },
        {
          "internalType": "uint256",
          "name": "amount",
          "type": "uint256"
        }
      ],
      "name": "withdrawCollateral",
      "outputs": [],
      "stateMutability": "nonpayable",
      "type": "function"
    }
  ],
  "bytecode": "0x60806040523480156200001157600080fd5b50604051620031f4380380620031f4833981810160405281019062000037919062000129565b336000806101000a81548173ffffffffffffffffffffffffffffffffffffffff021916908373ffffffffffffffffffffffffffffffffffffffff16021790555080600160006101000a81548173ffffffffffffffffffffffffffffffffffffffff021916908373ffffffffffffffffffffffffffffffffffffffff160217905550506200015b565b600080fd5b600073ffffffffffffffffffffffffffffffffffffffff82169050919050565b6000620000f182620000c4565b9050919050565b6200010381620000e4565b81146200010f57600080fd5b50565b6000815190506200012381620000f8565b92915050565b600060208284031215620001425762000141620000bf565b5b6000620001528482850162000112565b91505092915050565b613089806200016b6000396000f3fe608060405234801561001057600080fd5b50600436106101215760003560e01c806347a7d107116100ad5780638da5cb5b116100715780638da5cb5b146103555780638ffe8eaa14610373578063a5d5db0c146103a3578063ad1329d1146103bf578063cc218ece146103db57610121565b806347a7d1071461028d5780636b36b58f146102a957806375f361e7146102d95780638893edfe146102f55780638a1d1c8b1461032557610121565b80632b133eda116100f45780632b133eda146101d75780632eb7e205146101f5578063350c35e9146102255780633625a28b1461024157806340f895ea1461025d57610121565b8063044727be1461012657806317f17498146101565780631971daa7146101725780631bc2b2d1146101a2575b600080fd5b610140600480360381019061013b919061231e565b61040b565b60405161014d9190612377565b60405180910390f35b610170600480360381019061016b91906123be565b610430565b005b61018c600480360381019061018791906123fe565b61065a565b6040516101999190612377565b60405180910390f35b6101bc60048036038101906101b791906123be565b610672565b6040516101ce96959493929190612455565b60405180910390f35b6101df610718565b6040516101ec9190612515565b60405180910390f35b61020f600480360381019061020a919061231e565b61073e565b60405161021c9190612377565b60405180910390f35b61023f600480360381019061023a91906123be565b6107c5565b005b61025b60048036038101906102569190612530565b610b3e565b005b6102776004803603810190610272919061231e565b610d4c565b6040516102849190612377565b60405180910390f35b6102a760048036038101906102a291906123be565b610dd3565b005b6102c360048036038101906102be91906123fe565b6110cd565b6040516102d09190612377565b60405180910390f35b6102f360048036038101906102ee91906123fe565b611116565b005b61030f600480360381019061030a91906123be565b6111e8565b60405161031c919061262b565b60405180910390f35b61033f600480360381019061033a9190612646565b6113c8565b60405161034c9190612377565b60405180910390f35b61035d611d50565b60405161036a91906126c1565b60405180910390f35b61038d6004803603810190610388919061231e565b611d74565b60405161039a9190612377565b60405180910390f35b6103bd60048036038101906103b891906123be565b611e82565b005b6103d960048036038101906103d49190612530565b6120b1565b005b6103f560048036038101906103f0919061231e565b612232565b6040516104029190612377565b60405180910390f35b6003602052816000526040600020602052806000526040600020600091509150505481565b600073ffffffffffffffffffffffffffffffffffffffff168273ffffffffffffffffffffffffffffffffffffffff160361049f576040517f08c379a000000000000000000000000000000000000000000000000000000000815260040161049690612739565b60405180910390fd5b80600360003373ffffffffffffffffffffffffffffffffffffffff1673ffffffffffffffffffffffffffffffffffffffff16815260200190815260200160002060008473ffffffffffffffffffffffffffffffffffffffff1673ffffffffffffffffffffffffffffffffffffffff16815260200190815260200160002054101561055e576040517f08c379a0000000000000000000000000000000000000000000000000000000008152600401610555906127cb565b60405180910390fd5b80600360003373ffffffffffffffffffffffffffffffffffffffff1673ffffffffffffffffffffffffffffffffffffffff16815260200190815260200160002060008473ffffffffffffffffffffffffffffffffffffffff1673ffffffffffffffffffffffffffffffffffffffff16815260200190815260200160002060008282546105ea919061281a565b925050819055508173ffffffffffffffffffffffffffffffffffffffff163373ffffffffffffffffffffffffffffffffffffffff167f5c87c81b4945a78d177e7c3dfbc9a6eaa971757d39f3b93c514446b47b5a2e1a8360405161064e9190612377565b60405180910390a35050565b60056020528060005260406000206000915090505481565b6004602052816000526040600020818154811061068e57600080fd5b9060005260206000209060060201600091509150508060000160009054906101000a900473ffffffffffffffffffffffffffffffffffffffff16908060010160009054906101000a900473ffffffffffffffffffffffffffffffffffffffff16908060020154908060030154908060040154908060050160009054906101000a900460ff16905086565b600160009054906101000a900473ffffffffffffffffffffffffffffffffffffffff1681565b6000600260008473ffffffffffffffffffffffffffffffffffffffff1673ffffffffffffffffffffffffffffffffffffffff16815260200190815260200160002060008373ffffffffffffffffffffffffffffffffffffffff1673ffffffffffffffffffffffffffffffffffffffff16815260200190815260200160002054905092915050565b600073ffffffffffffffffffffffffffffffffffffffff168273ffffffffffffffffffffffffffffffffffffffff1603610834576040517f08c379a000000000000000000000000000000000000000000000000000000000815260040161082b90612739565b60405180910390fd5b60008111610877576040517f08c379a000000000000000000000000000000000000000000000000000000000815260040161086e906128c0565b60405180910390fd5b6000600360003373ffffffffffffffffffffffffffffffffffffffff1673ffffffffffffffffffffffffffffffffffffffff16815260200190815260200160002060008473ffffffffffffffffffffffffffffffffffffffff1673ffffffffffffffffffffffffffffffffffffffff16815260200190815260200160002054600260003373ffffffffffffffffffffffffffffffffffffffff1673ffffffffffffffffffffffffffffffffffffffff16815260200190815260200160002060008573ffffffffffffffffffffffffffffffffffffffff1673ffffffffffffffffffffffffffffffffffffffff1681526020019081526020016000205461097d919061281a565b9050818110156109c2576040517f08c379a00000000000000000000000000000000000000000000000000000000081526004016109b990612952565b60405180910390fd5b81600260003373ffffffffffffffffffffffffffffffffffffffff1673ffffffffffffffffffffffffffffffffffffffff16815260200190815260200160002060008573ffffffffffffffffffffffffffffffffffffffff1673ffffffffffffffffffffffffffffffffffffffff1681526020019081526020016000206000828254610a4e919061281a565b925050819055508273ffffffffffffffffffffffffffffffffffffffff1663a9059cbb33846040518363ffffffff1660e01b8152600401610a90929190612972565b6020604051808303816000875af1158015610aaf573d6000803e3d6000fd5b505050506040513d601f19601f82011682018060405250810190610ad391906129c7565b508273ffffffffffffffffffffffffffffffffffffffff163373ffffffffffffffffffffffffffffffffffffffff167f45892a46e6cef329bb642da6d69846d324db43d19008edc141ed82382eda1bee84604051610b319190612377565b60405180910390a3505050565b600073ffffffffffffffffffffffffffffffffffffffff168373ffffffffffffffffffffffffffffffffffffffff1614158015610ba85750600073ffffffffffffffffffffffffffffffffffffffff168273ffffffffffffffffffffffffffffffffffffffff1614155b610be7576040517f08c379a0000000000000000000000000000000000000000000000000000000008152600401610bde90612739565b60405180910390fd5b600081118015610bf8575060648111155b610c37576040517f08c379a0000000000000000000000000000000000000000000000000000000008152600401610c2e90612a40565b60405180910390fd5b600160009054906101000a900473ffffffffffffffffffffffffffffffffffffffff1673ffffffffffffffffffffffffffffffffffffffff1663d93180c58484846040518463ffffffff1660e01b8152600401610c9693929190612a60565b600060405180830381600087803b158015610cb057600080fd5b505af1158015610cc4573d6000803e3d6000fd5b505050508173ffffffffffffffffffffffffffffffffffffffff168373ffffffffffffffffffffffffffffffffffffffff163373ffffffffffffffffffffffffffffffffffffffff167ffc1bf7cc4b0b168ab5e884acb5bdd72cce76177d8afcbfe9fa91cdcbd2d7d02a600080604051610d3f929190612ad2565b60405180910390a4505050565b6000600360008473ffffffffffffffffffffffffffffffffffffffff1673ffffffffffffffffffffffffffffffffffffffff16815260200190815260200160002060008373ffffffffffffffffffffffffffffffffffffffff1673ffffffffffffffffffffffffffffffffffffffff16815260200190815260200160002054905092915050565b600073ffffffffffffffffffffffffffffffffffffffff168273ffffffffffffffffffffffffffffffffffffffff1603610e42576040517f08c379a0000000000000000000000000000000000000000000000000000000008152600401610e3990612739565b60405180910390fd5b60008111610e85576040517f08c379a0000000000000000000000000000000000000000000000000000000008152600401610e7c906128c0565b60405180910390fd5b6000600360003373ffffffffffffffffffffffffffffffffffffffff1673ffffffffffffffffffffffffffffffffffffffff16815260200190815260200160002060008473ffffffffffffffffffffffffffffffffffffffff1673ffffffffffffffffffffffffffffffffffffffff16815260200190815260200160002054600260003373ffffffffffffffffffffffffffffffffffffffff1673ffffffffffffffffffffffffffffffffffffffff16815260200190815260200160002060008573ffffffffffffffffffffffffffffffffffffffff1673ffffffffffffffffffffffffffffffffffffffff16815260200190815260200160002054610f8b919061281a565b905081811015610fd0576040517f08c379a0000000000000000000000000000000000000000000000000000000008152600401610fc790612952565b60405180910390fd5b81600360003373ffffffffffffffffffffffffffffffffffffffff1673ffffffffffffffffffffffffffffffffffffffff16815260200190815260200160002060008573ffffffffffffffffffffffffffffffffffffffff1673ffffffffffffffffffffffffffffffffffffffff168152602001908152602001600020600082825461105c9190612afb565b925050819055508273ffffffffffffffffffffffffffffffffffffffff163373ffffffffffffffffffffffffffffffffffffffff167f9d952b9056b1ad31790d622a7f5ecf49004b370b41add0e429ac1e9f4b8a3335846040516110c09190612377565b60405180910390a3505050565b6000600560008373ffffffffffffffffffffffffffffffffffffffff1673ffffffffffffffffffffffffffffffffffffffff168152602001908152602001600020549050919050565b60008054906101000a900473ffffffffffffffffffffffffffffffffffffffff1673ffffffffffffffffffffffffffffffffffffffff163373ffffffffffffffffffffffffffffffffffffffff16146111a4576040517f08c379a000000000000000000000000000000000000000000000000000000000815260040161119b90612b7b565b60405180910390fd5b80600160006101000a81548173ffffffffffffffffffffffffffffffffffffffff021916908373ffffffffffffffffffffffffffffffffffffffff16021790555050565b6111f0612257565b600560008473ffffffffffffffffffffffffffffffffffffffff1673ffffffffffffffffffffffffffffffffffffffff168152602001908152602001600020548210611271576040517f08c379a000000000000000000000000000000000000000000000000000000000815260040161126890612c0d565b60405180910390fd5b600460008473ffffffffffffffffffffffffffffffffffffffff1673ffffffffffffffffffffffffffffffffffffffff16815260200190815260200160002082815481106112c2576112c1612c2d565b5b90600052602060002090600602016040518060c00160405290816000820160009054906101000a900473ffffffffffffffffffffffffffffffffffffffff1673ffffffffffffffffffffffffffffffffffffffff1673ffffffffffffffffffffffffffffffffffffffff1681526020016001820160009054906101000a900473ffffffffffffffffffffffffffffffffffffffff1673ffffffffffffffffffffffffffffffffffffffff1673ffffffffffffffffffffffffffffffffffffffff1681526020016002820154815260200160038201548152602001600482015481526020016005820160009054906101000a900460ff161515151581525050905092915050565b60008073ffffffffffffffffffffffffffffffffffffffff168673ffffffffffffffffffffffffffffffffffffffff16141580156114335750600073ffffffffffffffffffffffffffffffffffffffff168573ffffffffffffffffffffffffffffffffffffffff1614155b611472576040517f08c379a000000000000000000000000000000000000000000000000000000000815260040161146990612739565b60405180910390fd5b600084116114b5576040517f08c379a00000000000000000000000000000000000000000000000000000000081526004016114ac90612ca8565b60405180910390fd5b600073ffffffffffffffffffffffffffffffffffffffff168273ffffffffffffffffffffffffffffffffffffffff1603611524576040517f08c379a000000000000000000000000000000000000000000000000000000000815260040161151b90612d14565b60405180910390fd5b6000600360003373ffffffffffffffffffffffffffffffffffffffff1673ffffffffffffffffffffffffffffffffffffffff16815260200190815260200160002060008873ffffffffffffffffffffffffffffffffffffffff1673ffffffffffffffffffffffffffffffffffffffff16815260200190815260200160002054600260003373ffffffffffffffffffffffffffffffffffffffff1673ffffffffffffffffffffffffffffffffffffffff16815260200190815260200160002060008973ffffffffffffffffffffffffffffffffffffffff1673ffffffffffffffffffffffffffffffffffffffff1681526020019081526020016000205461162a919061281a565b90508481101561166f576040517f08c379a000000000000000000000000000000000000000000000000000000000815260040161166690612da6565b60405180910390fd5b84600360003373ffffffffffffffffffffffffffffffffffffffff1673ffffffffffffffffffffffffffffffffffffffff16815260200190815260200160002060008973ffffffffffffffffffffffffffffffffffffffff1673ffffffffffffffffffffffffffffffffffffffff16815260200190815260200160002060008282546116fb9190612afb565b925050819055508673ffffffffffffffffffffffffffffffffffffffff1663095ea7b384876040518363ffffffff1660e01b815260040161173d929190612972565b6020604051808303816000875af115801561175c573d6000803e3d6000fd5b505050506040513d601f19601f8201168201806040525081019061178091906129c7565b50600087878760405160240161179893929190612a60565b6040516020818303038152906040527fdf791e50000000000000000000000000000000000000000000000000000000007bffffffffffffffffffffffffffffffffffffffffffffffffffffffff19166020820180517bffffffffffffffffffffffffffffffffffffffffffffffffffffffff838183161783525050505090506000808573ffffffffffffffffffffffffffffffffffffffff168360405161183f9190612e37565b6000604051808303816000865af19150503d806000811461187c576040519150601f19603f3d011682016040523d82523d6000602084013e611881565b606091505b5091509150816118c6576040517f08c379a00000000000000000000000000000000000000000000000000000000081526004016118bd90612e9a565b60405180910390fd5b808060200190518101906118da9190612ecf565b94508685101561191f576040517f08c379a000000000000000000000000000000000000000000000000000000000815260040161191690612f48565b60405180910390fd5b87600260003373ffffffffffffffffffffffffffffffffffffffff1673ffffffffffffffffffffffffffffffffffffffff16815260200190815260200160002060008c73ffffffffffffffffffffffffffffffffffffffff1673ffffffffffffffffffffffffffffffffffffffff16815260200190815260200160002060008282546119ab919061281a565b9250508190555087600360003373ffffffffffffffffffffffffffffffffffffffff1673ffffffffffffffffffffffffffffffffffffffff16815260200190815260200160002060008c73ffffffffffffffffffffffffffffffffffffffff1673ffffffffffffffffffffffffffffffffffffffff1681526020019081526020016000206000828254611a3e919061281a565b9250508190555084600260003373ffffffffffffffffffffffffffffffffffffffff1673ffffffffffffffffffffffffffffffffffffffff16815260200190815260200160002060008b73ffffffffffffffffffffffffffffffffffffffff1673ffffffffffffffffffffffffffffffffffffffff1681526020019081526020016000206000828254611ad19190612afb565b925050819055506000600560003373ffffffffffffffffffffffffffffffffffffffff1673ffffffffffffffffffffffffffffffffffffffff1681526020019081526020016000206000815480929190611b2a90612f68565b919050559050600460003373ffffffffffffffffffffffffffffffffffffffff1673ffffffffffffffffffffffffffffffffffffffff1681526020019081526020016000206040518060c001604052808d73ffffffffffffffffffffffffffffffffffffffff1681526020018c73ffffffffffffffffffffffffffffffffffffffff1681526020018b815260200188815260200142815260200160011515815250908060018154018082558091505060019003906000526020600020906006020160009091909190915060008201518160000160006101000a81548173ffffffffffffffffffffffffffffffffffffffff021916908373ffffffffffffffffffffffffffffffffffffffff16021790555060208201518160010160006101000a81548173ffffffffffffffffffffffffffffffffffffffff021916908373ffffffffffffffffffffffffffffffffffffffff16021790555060408201518160020155606082015181600301556080820151816004015560a08201518160050160006101000a81548160ff02191690831515021790555050508973ffffffffffffffffffffffffffffffffffffffff168b73ffffffffffffffffffffffffffffffffffffffff163373ffffffffffffffffffffffffffffffffffffffff167f315ca52d2974a76f94b7259d54000c39dc2d8747fe1bb0cf4d74e2043ad571478c8a86604051611d3a93929190612fb0565b60405180910390a4505050505095945050505050565b60008054906101000a900473ffffffffffffffffffffffffffffffffffffffff1681565b6000600360008473ffffffffffffffffffffffffffffffffffffffff1673ffffffffffffffffffffffffffffffffffffffff16815260200190815260200160002060008373ffffffffffffffffffffffffffffffffffffffff1673ffffffffffffffffffffffffffffffffffffffff16815260200190815260200160002054600260008573ffffffffffffffffffffffffffffffffffffffff1673ffffffffffffffffffffffffffffffffffffffff16815260200190815260200160002060008473ffffffffffffffffffffffffffffffffffffffff1673ffffffffffffffffffffffffffffffffffffffff16815260200190815260200160002054611e7a919061281a565b905092915050565b600073ffffffffffffffffffffffffffffffffffffffff168273ffffffffffffffffffffffffffffffffffffffff1603611ef1576040517f08c379a0000000000000000000000000000000000000000000000000000000008152600401611ee890612739565b60405180910390fd5b60008111611f34576040517f08c379a0000000000000000000000000000000000000000000000000000000008152600401611f2b906128c0565b60405180910390fd5b8173ffffffffffffffffffffffffffffffffffffffff166323b872dd3330846040518463ffffffff1660e01b8152600401611f7193929190612a60565b6020604051808303816000875af1158015611f90573d6000803e3d6000fd5b505050506040513d601f19601f82011682018060405250810190611fb491906129c7565b5080600260003373ffffffffffffffffffffffffffffffffffffffff1673ffffffffffffffffffffffffffffffffffffffff16815260200190815260200160002060008473ffffffffffffffffffffffffffffffffffffffff1673ffffffffffffffffffffffffffffffffffffffff16815260200190815260200160002060008282546120419190612afb565b925050819055508173ffffffffffffffffffffffffffffffffffffffff163373ffffffffffffffffffffffffffffffffffffffff167ff1c0dd7e9b98bbff859029005ef89b127af049cd18df1a8d79f0b7e019911e56836040516120a59190612377565b60405180910390a35050565b60008054906101000a900473ffffffffffffffffffffffffffffffffffffffff1673ffffffffffffffffffffffffffffffffffffffff163373ffffffffffffffffffffffffffffffffffffffff161461213f576040517f08c379a000000000000000000000000000000000000000000000000000000000815260040161213690612b7b565b60405180910390fd5b600073ffffffffffffffffffffffffffffffffffffffff168273ffffffffffffffffffffffffffffffffffffffff16036121ae576040517f08c379a00000000000000000000000000000000000000000000000000000000081526004016121a590613033565b60405180910390fd5b8273ffffffffffffffffffffffffffffffffffffffff1663a9059cbb83836040518363ffffffff1660e01b81526004016121e9929190612972565b6020604051808303816000875af1158015612208573d6000803e3d6000fd5b505050506040513d601f19601f8201168201806040525081019061222c91906129c7565b50505050565b6002602052816000526040600020602052806000526040600020600091509150505481565b6040518060c00160405280600073ffffffffffffffffffffffffffffffffffffffff168152602001600073ffffffffffffffffffffffffffffffffffffffff1681526020016000815260200160008152602001600081526020016000151581525090565b600080fd5b600073ffffffffffffffffffffffffffffffffffffffff82169050919050565b60006122eb826122c0565b9050919050565b6122fb816122e0565b811461230657600080fd5b50565b600081359050612318816122f2565b92915050565b60008060408385031215612335576123346122bb565b5b600061234385828601612309565b925050602061235485828601612309565b9150509250929050565b6000819050919050565b6123718161235e565b82525050565b600060208201905061238c6000830184612368565b92915050565b61239b8161235e565b81146123a657600080fd5b50565b6000813590506123b881612392565b92915050565b600080604083850312156123d5576123d46122bb565b5b60006123e385828601612309565b92505060206123f4858286016123a9565b9150509250929050565b600060208284031215612414576124136122bb565b5b600061242284828501612309565b91505092915050565b612434816122e0565b82525050565b60008115159050919050565b61244f8161243a565b82525050565b600060c08201905061246a600083018961242b565b612477602083018861242b565b6124846040830187612368565b6124916060830186612368565b61249e6080830185612368565b6124ab60a0830184612446565b979650505050505050565b6000819050919050565b60006124db6124d66124d1846122c0565b6124b6565b6122c0565b9050919050565b60006124ed826124c0565b9050919050565b60006124ff826124e2565b9050919050565b61250f816124f4565b82525050565b600060208201905061252a6000830184612506565b92915050565b600080600060608486031215612549576125486122bb565b5b600061255786828701612309565b935050602061256886828701612309565b9250506040612579868287016123a9565b9150509250925092565b61258c816122e0565b82525050565b61259b8161235e565b82525050565b6125aa8161243a565b82525050565b60c0820160008201516125c66000850182612583565b5060208201516125d96020850182612583565b5060408201516125ec6040850182612592565b5060608201516125ff6060850182612592565b5060808201516126126080850182612592565b5060a082015161262560a08501826125a1565b50505050565b600060c08201905061264060008301846125b0565b92915050565b600080600080600060a08688031215612662576126616122bb565b5b600061267088828901612309565b955050602061268188828901612309565b9450506040612692888289016123a9565b93505060606126a3888289016123a9565b92505060806126b488828901612309565b9150509295509295909350565b60006020820190506126d6600083018461242b565b92915050565b600082825260208201905092915050565b7f536d6172744163636f756e743a20496e76616c696420746f6b656e0000000000600082015250565b6000612723601b836126dc565b915061272e826126ed565b602082019050919050565b6000602082019050818103600083015261275281612716565b9050919050565b7f536d6172744163636f756e743a20496e73756666696369656e74206c6f636b6560008201527f6420636f6c6c61746572616c0000000000000000000000000000000000000000602082015250565b60006127b5602c836126dc565b91506127c082612759565b604082019050919050565b600060208201905081810360008301526127e4816127a8565b9050919050565b7f4e487b7100000000000000000000000000000000000000000000000000000000600052601160045260246000fd5b60006128258261235e565b91506128308361235e565b9250828203905081811115612848576128476127eb565b5b92915050565b7f536d6172744163636f756e743a20416d6f756e74206d7573742062652067726560008201527f61746572207468616e2030000000000000000000000000000000000000000000602082015250565b60006128aa602b836126dc565b91506128b58261284e565b604082019050919050565b600060208201905081810360008301526128d98161289d565b9050919050565b7f536d6172744163636f756e743a20496e73756666696369656e7420617661696c60008201527f61626c6520636f6c6c61746572616c0000000000000000000000000000000000602082015250565b600061293c602f836126dc565b9150612947826128e0565b604082019050919050565b6000602082019050818103600083015261296b8161292f565b9050919050565b6000604082019050612987600083018561242b565b6129946020830184612368565b9392505050565b6129a48161243a565b81146129af57600080fd5b50565b6000815190506129c18161299b565b92915050565b6000602082840312156129dd576129dc6122bb565b5b60006129eb848285016129b2565b91505092915050565b7f536d6172744163636f756e743a20496e76616c69642070657263656e74000000600082015250565b6000612a2a601d836126dc565b9150612a35826129f4565b602082019050919050565b60006020820190508181036000830152612a5981612a1d565b9050919050565b6000606082019050612a75600083018661242b565b612a82602083018561242b565b612a8f6040830184612368565b949350505050565b6000819050919050565b6000612abc612ab7612ab284612a97565b6124b6565b61235e565b9050919050565b612acc81612aa1565b82525050565b6000604082019050612ae76000830185612ac3565b612af46020830184612ac3565b9392505050565b6000612b068261235e565b9150612b118361235e565b9250828201905080821115612b2957612b286127eb565b5b92915050565b7f536d6172744163636f756e743a204e6f7420617574686f72697a656400000000600082015250565b6000612b65601c836126dc565b9150612b7082612b2f565b602082019050919050565b60006020820190508181036000830152612b9481612b58565b9050919050565b7f536d6172744163636f756e743a20496e76616c696420736574746c656d656e7460008201527f20696e6465780000000000000000000000000000000000000000000000000000602082015250565b6000612bf76026836126dc565b9150612c0282612b9b565b604082019050919050565b60006020820190508181036000830152612c2681612bea565b9050919050565b7f4e487b7100000000000000000000000000000000000000000000000000000000600052603260045260246000fd5b7f536d6172744163636f756e743a20496e76616c696420616d6f756e7400000000600082015250565b6000612c92601c836126dc565b9150612c9d82612c5c565b602082019050919050565b60006020820190508181036000830152612cc181612c85565b9050919050565b7f536d6172744163636f756e743a20496e76616c69642044455800000000000000600082015250565b6000612cfe6019836126dc565b9150612d0982612cc8565b602082019050919050565b60006020820190508181036000830152612d2d81612cf1565b9050919050565b7f536d6172744163636f756e743a20496e73756666696369656e7420636f6c6c6160008201527f746572616c000000000000000000000000000000000000000000000000000000602082015250565b6000612d906025836126dc565b9150612d9b82612d34565b604082019050919050565b60006020820190508181036000830152612dbf81612d83565b9050919050565b600081519050919050565b600081905092915050565b60005b83811015612dfa578082015181840152602081019050612ddf565b60008484015250505050565b6000612e1182612dc6565b612e1b8185612dd1565b9350612e2b818560208601612ddc565b80840191505092915050565b6000612e438284612e06565b915081905092915050565b7f536d6172744163636f756e743a2053776170206661696c656400000000000000600082015250565b6000612e846019836126dc565b9150612e8f82612e4e565b602082019050919050565b60006020820190508181036000830152612eb381612e77565b9050919050565b600081519050612ec981612392565b92915050565b600060208284031215612ee557612ee46122bb565b5b6000612ef384828501612eba565b91505092915050565b7f536d6172744163636f756e743a20536c69707061676520746f6f206869676800600082015250565b6000612f32601f836126dc565b9150612f3d82612efc565b602082019050919050565b60006020820190508181036000830152612f6181612f25565b9050919050565b6000612f738261235e565b91507fffffffffffffffffffffffffffffffffffffffffffffffffffffffffffffffff8203612fa557612fa46127eb565b5b600182019050919050565b6000606082019050612fc56000830186612368565b612fd26020830185612368565b612fdf6040830184612368565b949350505050565b7f536d6172744163636f756e743a20496e76616c696420726563697069656e7400600082015250565b600061301d601f836126dc565b915061302882612fe7565b602082019050919050565b6000602082019050818103600083015261304c81613010565b905091905056fea264697066735822122088b3cb943a1c5836036f642b9adbe16e66c6623434b03a19c9e6edcbdab29aec64736f6c63430008140033",
  "linkReferences": {},
  "deployedLinkReferences": {}
}